:020000040800F2
:1000000000280020C5150008551500085B150008DC
:1000100061150008671500086D1500080000000054
:100020000000000000000000000000007315000840
:100030007F150008000000008B15000897150008C8
:100040000D1600080D1600080D1600080D16000804
:100050000D1600080D1600080D1600080D160008F4
:100060000D1600080D1600080D1600080D160008E4
:100070000D1600080D1600080D1600080D160008D4
:100080000D1600080D1600080D1600080D160008C4
:100090000D1600080D1600080D1600080D160008B4
:1000A0000D1600080D1600080D1600080D160008A4
:1000B000A51500080D160008000000000D16000828
:1000C0000D16000800000000000000000D160008DA
:1000D000000000000D1600080D16000800000000CA
:1000E0000D1600080D1600080D160008000000008F
:1000F0000000000000000000000000000000000000
:0C01000000000000000000005FF808F1A3
:10010C0010B5054C237833B9044B13B10448AFF345
:10011C0000800123237010BD74000020000000003B
:10012C003C2C000808B5034B1BB103490348AFF343
:10013C00008008BD00000000780000203C2C000866
:10014C0080B483B000AF7860094A7B6852F82330E2
:10015C00012B06D1064A7B68002142F823100123AB
:10016C0000E0002318460C37BD4680BC704700BF2A
:10017C009000002080B582B000AF00237B607AE055
:10018C00414A7B6852F8232040497B6841F8232080
:10019C003F4A7B6852F823203B497B6841F8232077
:1001AC003C4A7B6852F823203B497B6831F813307A
:1001BC001946104601F010FD03461946344A7B6877
:1001CC0042F82310314A7B6852F823202E497B6871
:1001DC0051F823309A424BD12B4A7B6852F823209A
:1001EC002B497B6851F823309A4241D12B4A7B68CA
:1001FC0052F8232026497B6851F823309A4218D0B4
:10020C00234A7B6852F8232024497B6841F8232039
:10021C001F4A7B6852F82330002B29D1204A7B6877
:10022C00012142F823101F4A7B68C82142F8231091
:10023C001EE0174A7B6852F82330002B18D1194A5C
:10024C007B6852F823305A1E16497B6841F82320EC
:10025C00144A7B6852F82330002B09D1104A7B6872
:10026C00012142F823100F4A7B68C82142F8231061
:10027C007B6801337B607B68022B81DD00BF00BF94
:10028C000837BD4680BD00BF180000200C000020C0
:10029C00240000203C0000204800002030000020FA
:1002AC00900000200000002080B582B000AF786084
:1002BC007B68092B00F2808101A252F823F000BF69
:1002CC00F50200083D03000885030008CD03000873
:1002DC00150400085D040008A5040008ED040008DE
:1002EC00350500087D05000800220121B54801F004
:1002FC008AFC00220221B34801F085FC0022042173
:10030C00B04801F080FC00220821AE4801F07BFCD3
:10031C0000221021AB4801F076FC00222021A948D4
:10032C0001F071FC01224021A64801F06CFC44E173
:10033C0001220121A34801F066FC00220221A14800
:10034C0001F061FC002204219E4801F05CFC0122BA
:10035C0008219C4801F057FC01221021994801F01A
:10036C0052FC01222021974801F04DFC0122402132
:10037C00944801F048FC20E100220121914801F051
:10038C0042FC002202218F4801F03DFC0122042195
:10039C008C4801F038FC002208218A4801F033FC1B
:1003AC0000221021874801F02EFC012220218548D3
:1003BC0001F029FC00224021824801F024FCFCE0E1
:1003CC00002201217F4801F01EFC002202217D4801
:1003DC0001F019FC002204217A4801F014FC0022DF
:1003EC000821784801F00FFC01221021754801F01A
:1003FC000AFC01222021734801F005FC0022402157
:10040C00704801F000FCD8E0012201216D4801F098
:10041C00FAFB002202216B4801F0F5FB00220421BB
:10042C00684801F0F0FB01220821664801F0EBFB63
:10043C0001221021634801F0E6FB002220216148D3
:10044C0001F0E1FB002240215E4801F0DCFBB4E04E
:10045C00002201215B4801F0D6FB01220221594800
:10046C0001F0D1FB00220421564801F0CCFB002204
:10047C000821544801F0C7FB01221021514801F01A
:10048C00C2FB002220214F4801F0BDFB002240217D
:10049C004C4801F0B8FB90E000220121494801F0E2
:1004AC00B2FB01220221474801F0ADFB00220421DE
:1004BC00444801F0A8FB00220821424801F0A3FBAC
:1004CC00002210213F4801F09EFB002220213D48D4
:1004DC0001F099FB002240213A4801F094FB6CE0BA
:1004EC0000220121374801F08EFB00220221354801
:1004FC0001F089FB00220421324801F084FB012227
:10050C000821304801F07FFB012210212D4801F019
:10051C007AFB012220212B4801F075FB012240219E
:10052C00284801F070FB48E000220121254801F029
:10053C006AFB00220221234801F065FB0022042102
:10054C00204801F060FB002208211E4801F05BFBF3
:10055C00002210211B4801F056FB002220211948D3
:10056C0001F051FB00224021164801F04CFB24E025
:10057C0000220121134801F046FB00220221114800
:10058C0001F041FB002204210E4801F03CFB00224B
:10059C0008210C4801F037FB01221021094801F019
:1005AC0032FB00222021074801F02DFB00224021C4
:1005BC00044801F028FB00E000BF00BF0837BD462F
:1005CC0080BD00BF000C014080B582B000AF7860E8
:1005DC007B68092B00F2BC8101A252F823F000BF0A
:1005EC001506000869060008BD060008110700087A
:1005FC0065070008B90700080D0800086108000825
:10060C00B50800080909000800228021D34801F030
:10061C00FAFA00224FF48071D04801F0F4FA00226B
:10062C004FF40071CD4801F0EEFA00224FF48061D6
:10063C00CA4801F0E8FA00224FF40061C74801F003
:10064C00E2FA00224FF48051C44801F0DCFA012296
:10065C004FF40051C14801F0D6FA7AE10122802111
:10066C00BE4801F0D0FA00224FF48071BB4801F073
:10067C00CAFA00224FF40071B84801F0C4FA012202
:10068C004FF48061B54801F0BEFA01224FF40061CD
:10069C00B24801F0B8FA01224FF48051AF4801F092
:1006AC00B2FA01224FF40051AC4801F0ACFA50E11F
:1006BC0000228021A94801F0A6FA00224FF4807193
:1006CC00A64801F0A0FA01224FF40071A34801F0F2
:1006DC009AFA00224FF48061A04801F094FA0022AB
:1006EC004FF400619D4801F08EFA01224FF48051C5
:1006FC009A4801F088FA00224FF40051974801F013
:10070C0082FA26E100228021944801F07CFA002232
:10071C004FF48071914801F076FA00224FF4007189
:10072C008E4801F070FA00224FF480618B4801F082
:10073C006AFA01224FF40061884801F064FA012240
:10074C004FF48051854801F05EFA00224FF40051BD
:10075C00824801F058FAFCE0012280217F4801F028
:10076C0052FA00224FF480717C4801F04CFA0022BE
:10077C004FF40071794801F046FA01224FF4806180
:10078C00764801F040FA01224FF40061734801F001
:10079C003AFA00224FF48051704801F034FA0022EA
:1007AC004FF400516D4801F02EFAD2E00022802166
:1007BC006A4801F028FA01224FF48071674801F071
:1007CC0022FA00224FF40071644801F01CFA002256
:1007DC004FF48061614801F016FA01224FF4006178
:1007EC005E4801F010FA00224FF480515B4801F092
:1007FC000AFA00224FF40051584801F004FAA8E01C
:10080C0000228021554801F0FEF901224FF480713D
:10081C00524801F0F8F900224FF400714F4801F0F2
:10082C00F2F900224FF480614C4801F0ECF90022FF
:10083C004FF40061494801F0E6F900224FF4805171
:10084C00464801F0E0F900224FF40051434801F012
:10085C00DAF97EE000228021404801F0D4F9002230
:10086C004FF480713D4801F0CEF900224FF4007135
:10087C003A4801F0C8F901224FF48061374801F081
:10088C00C2F901224FF40061344801F0BCF9012295
:10089C004FF48051314801F0B6F901224FF4005168
:1008AC002E4801F0B0F954E0002280212B4801F0D1
:1008BC00AAF900224FF48071284801F0A4F9002213
:1008CC004FF40071254801F09EF900224FF480612D
:1008DC00224801F098F900224FF400611F4801F002
:1008EC0092F900224FF480511C4801F08CF900223F
:1008FC004FF40051194801F086F92AE000228021BA
:10090C00164801F080F900224FF48071134801F071
:10091C007AF900224FF40071104801F074F90022AA
:10092C004FF480610D4801F06EF901224FF4006123
:10093C000A4801F068F900224FF48051074801F091
:10094C0062F900224FF40051044801F05CF900E018
:10095C0000BF00BF0837BD4680BD00BF000C014082
:10096C0080B500AF3A4B1B68002B02D0012B35D061
:10097C006CE000224FF48051364801F044F901221A
:10098C004FF40051334801F03EF9334B1B68334AA6
:10099C0082FB03129210DB17D31A1846FFF784FC64
:1009AC002D4B1A682D4B83FB02139910D317C91AC0
:1009BC000B469B000B445B00D11A0846FFF704FE64
:1009CC00032000F027FD0346012B3CD132210320EC
:1009DC0000F008FD1E4B01221A6034E001224FF496
:1009EC0080511C4801F00FF900224FF400511948B6
:1009FC0001F009F91A4B1B68184A82FB031292107A
:100A0C00DB17D31A1846FFF74FFC154B1A68134B1C
:100A1C0083FB02139910D317C91A0B469B000B4486
:100A2C005B00D11A0846FFF7CFFD032000F0F2FC63
:100A3C000346012B09D13221032000F0D3FC044BD7
:100A4C0000221A6001E000BF00E000BF00BF80BDC3
:100A5C009C00002000080140A40000206766666628
:100A6C00A800002080B500AF314B1B68002B02D0D2
:100A7C00012B22D059E000224FF480512D4801F077
:100A8C00C2F801224FF400512A4801F0BCF80020B2
:100A9C00FFF70AFC284B1B681846FFF795FD03204F
:100AAC0000F0B8FC0346012B3CD13221032000F0AE
:100ABC0099FC1F4B01221A6034E001224FF4805143
:100ACC001C4801F0A0F800224FF40051194801F025
:100ADC009AF81A4B1B681A4A82FB03129210DB1706
:100AEC00D31A1846FFF7E0FB144B1A68144B83FB20
:100AFC0002139910D317C91A0B469B000B445B00C9
:100B0C00D11A0846FFF760FD032000F083FC034672
:100B1C00012B09D13221032000F064FC044B00228C
:100B2C001A6001E000BF00E000BF00BF80BD00BF45
:100B3C009C0000200008014058000020A00000206C
:100B4C006766666680B500AFB34B1B68013B032B31
:100B5C0000F2BD8001A252F823F000BF790B00080F
:100B6C00BB0B00081B0C00087B0C000801220421A5
:100B7C00AA4801F048F801221021A84801F043F8D6
:100B8C0001220821A54801F03EF8A34B02221A606D
:100B9C00A34B1B68A34A82FB03129211DB17D31AD7
:100BAC00A14A13606421012000F01CFC96E0002295
:100BBC0004219A4801F027F801221021974801F0EE
:100BCC0022F801220821954801F01DF8012000F0BF
:100BDC0021FC0346012B7CD1934B1B68013B924AB1
:100BEC0013606421012000F0FDFB8F4B1B68002B70
:100BFC006FDC894B03221A608C4B1B68894A82FB81
:100C0C0003129211DB17D31A874A136061E0012299
:100C1C000421824800F0F7FF002210217F4800F0E9
:100C2C00F2FF012208217D4800F0EDFF012000F0C9
:100C3C00F1FB0346012B4ED17B4B1B68013B7A4ADF
:100C4C0013606421012000F0CDFB774B1B68002B57
:100C5C0041DC714B04221A60754B1B68714A82FB94
:100C6C0003129211DB17D31A6F4A136033E001227F
:100C7C0004216A4800F0C7FF01221021674800F0E8
:100C8C00C2FF00220821654800F0BDFF012000F0E2
:100C9C00C1FB0346012B20D1634B1B68013B624A0D
:100CAC0013606421012000F09DFB5F4B1B68002B3F
:100CBC0013DC594B02221A60594B1B68594A82FBB0
:100CCC0003129211DB17D31A574A136005E000BFC9
:100CDC0004E000BF02E000BF00E000BF554B1B6802
:100CEC00013B032B00F2DD8001A252F823F000BF80
:100CFC000D0D0008550D0008BF0D0008490E000829
:100D0C0001224FF40071454800F07DFF01224FF4A1
:100D1C000061424800F077FF01224FF480613F48A8
:100D2C0000F071FF434B03221A60404B1B683D4A95
:100D3C0082FB03129211DB17D31A3F4A1360642112
:100D4C00022000F04FFBB3E000224FF40071334857
:100D5C0000F059FF01224FF40061304800F053FFBE
:100D6C0001224FF480612D4800F04DFF022000F06D
:100D7C0051FB0346012B40F096802F4B1B68013B27
:100D8C002D4A13606421022000F02CFB2A4B1B68B7
:100D9C00002B40F08880274B03221A60234B1B68E2
:100DAC00204A82FB03129211DB17D31A224A1360DA
:100DBC0079E001224FF40071184800F024FF002262
:100DCC004FF40061154800F01EFF01224FF48061C2
:100DDC00124800F018FF022000F01CFB0346012B08
:100DEC0063D1154B1B68013B134A1360642102202D
:100DFC0000F0F8FA104B1B68002B56D10D4B042257
:100E0C001A600B4B1B68074A82FB03129211DB170B
:100E1C00D31A094A136048E0500000200008014032
:100E2C005C000020D34D6210A40000206400002060
:100E3C006000002054000020A800002001224FF484
:100E4C0000711C4800F0DFFE01224FF400611948CC
:100E5C0000F0D9FE00224FF48061164800F0D3FE5A
:100E6C00022000F0D7FA0346012B20D1124B1B684D
:100E7C00013B114A13606421022000F0B3FA0E4BBF
:100E8C001B68002B13D10D4B02221A600C4B1B68F4
:100E9C000C4A82FB03129211DB17D31A064A136019
:100EAC0005E000BF04E000BF02E000BF00E000BFAF
:100EBC0000BF80BD00080140A800002054000020A5
:100ECC005C000020D34D621080B500AF9E4B1B68B8
:100EDC00013B032B00F22B8101A252F823F000BF3F
:100EEC00FD0E00083D0F0008E70F00088F100008EA
:100EFC00FFF728FEFFF734FD0020FFF721F903462A
:100F0C00012B40F018813221042000F06BFA8E4B3B
:100F1C0002221A608D4B01221A60012240F61C61DC
:100F2C008B4800F070FE3221032000F05BFA02E1E6
:100F3C00042000F06FFA0346012B0CD1322104205F
:100F4C0000F050FA0421824800F075FE4FF4007155
:100F5C007F4800F070FE0120FFF7F2F80346012BEA
:100F6C000BD17A4B1B680133784A1360774B1B68A3
:100F7C00632B02DD754B00221A600220FFF7E0F8AC
:100F8C000346012B0AD1714B1B684FF47A7202FB9A
:100F9C0003F3704A13606D4B01221A60FFF762FD78
:100FAC000020FFF7CDF80346012B40F0C68032211C
:100FBC00042000F017FA644B03221A60634B0122E1
:100FCC001A6001220421624800F01DFE01224FF438
:100FDC0000715F4800F017FEAFE0042000F01AFA31
:100FEC000346012B0CD13221042000F0FBF908211F
:100FFC00574800F020FE4FF48061554800F01BFE6E
:10100C000120FFF79DF80346012B0BD14F4B1B68BA
:10101C0001334E4A13604D4B1B68632B02DD4B4B67
:10102C0000221A600220FFF78BF80346012B0AD12D
:10103C00464B1B684FF47A7202FB03F3464A13606B
:10104C00424B01221A60FFF70DFD0020FFF778F8E4
:10105C000346012B73D13221042000F0C3F93A4B23
:10106C0004221A60394B01221A60012208213848E7
:10107C0000F0C9FD01224FF48061354800F0C3FD3A
:10108C005DE0042000F0C6F90346012B0CD132219F
:10109C00042000F0A7F910212D4800F0CCFD4FF4EE
:1010AC0000612B4800F0C7FD0120FFF749F803460B
:1010BC00012B0BD1254B1B680133244A1360234BA6
:1010CC001B68632B02DD214B00221A600220FFF704
:1010DC0037F80346012B0AD11C4B1B684FF47A726C
:1010EC0002FB03F31D4A1360184B01221A60FFF731
:1010FC00B9FC0020FFF724F80346012B21D1124B39
:10110C0001221A60114B01221A60154B01221A6040
:10111C00144B01221A60012210210D4800F073FDBE
:10112C0001224FF400610A4800F06DFD09E0064B06
:10113C0001221A6006E000BF04E000BF02E000BF1D
:10114C0000E000BF00BF80BD58000020A0000020C0
:10115C00000801405C0000206000002064000020BA
:10116C00500000205400002080B500AF00F04AFA77
:10117C0000F03AF800F0C0F800F072F8164801F0F0
:10118C009FF9164B01221A60154B01221A6064213B
:10119C00002000F027F93221032000F023F900226F
:1011AC004FF480510F4800F02EFD00224FF40051F7
:1011BC000C4800F028FD002000F02CF90346012B10
:1011CC0007D16421002000F00DF92021054800F022
:1011DC0032FDFFF779FEEEE7AC0000205000002056
:1011EC00540000200008014080B590B000AF07F11A
:1011FC00180328220021184601F012FD3B1D002285
:10120C001A605A609A60DA601A610223BB6101238A
:10121C00BB621023FB6200237B6307F118031846A3
:10122C0000F022FD0346002B01D000F0D5F80F236F
:10123C007B600023BB600023FB6000233B61002329
:10124C007B613B1D0021184600F08EFF0346002BEE
:10125C0001D000F0C1F800BF4037BD4680BD000092
:10126C0080B586B000AF07F1080300221A605A60FF
:10127C009A60DA603B4600221A605A601D4B4FF0B0
:10128C0080421A601B4B41F63F725A60194B002288
:10129C009A60184B0922DA60164B00221A61154B22
:1012AC0000229A61134801F0BBF80346002B01D0D1
:1012BC0000F092F84FF48053BB6007F10803194615
:1012CC000C4801F039FA0346002B01D000F084F8E9
:1012DC0000233B6000237B603B461946054801F028
:1012EC0011FC0346002B01D000F076F800BF183734
:1012FC00BD4680BDAC00002080B586B000AF07F1C4
:10130C00080300221A605A609A60DA60294B9B69C4
:10131C00284A43F004039361264B9B6903F00403B2
:10132C007B607B68234B9B69224A43F008039361E3
:10133C00204B9B6903F008033B603B68002243F69B
:10134C003C611D4800F05FFC002243F6FF711B4816
:10135C0000F059FC43F63C63BB600123FB600023A7
:10136C003B6102237B6107F108031946124800F028
:10137C00B9FA4FF4E073BB600023FB6001233B61BF
:10138C0007F1080319460C4800F0ACFA43F6FF735A
:10139C00BB600123FB6000233B6102237B6107F1EF
:1013AC0008031946054800F09DFA00BF1837BD46E2
:1013BC0080BD00BF0010024000080140000C01403D
:1013CC0080B582B000AF786000F038F8FEF7D2FE3E
:1013DC0000BF0837BD4680BD80B400AF72B600BFF9
:1013EC00FEE7000080B483B000AF78603960074935
:1013FC007B683A6841F82320054A7B68002142F853
:10140C00231000BF0C37BD4680BC7047F400002091
:10141C004401002080B483B000AF7860064A7B683A
:10142C0052F82330012B01D1012300E00023184690
:10143C000C37BD4680BC70474401002080B483B09B
:10144C0000AF00237B601CE0124A7B6852F823300B
:10145C00002B13DD0F4A7B6852F823305A1E0D49BE
:10146C007B6841F823200B4A7B6852F82330002B11
:10147C0004DC094A7B68012142F823107B680133A4
:10148C007B607B68132BDFDD00BF00BF0C37BD46D4
:10149C0080BC7047F40000204401002080B485B06B
:1014AC0000AF154B9B69144A43F001039361124B37
:1014BC009B6903F00103BB60BB680F4BDB690E4AF1
:1014CC0043F08053D3610C4BDB6903F080537B609A
:1014DC007B680A4B5B68FB60FB6823F0E063FB6096
:1014EC00FB6843F08063FB60044AFB68536000BFF9
:1014FC001437BD4680BC704700100240000001400C
:10150C0080B584B000AF78607B681B68B3F1804F06
:10151C0013D10C4BDB690B4A43F00103D361094B2C
:10152C00DB6903F00103FB60FB68002200211C2037
:10153C0000F0A1F91C2000F0BAF900BF1037BD462D
:10154C0080BD00BF0010024080B400AFFEE780B445
:10155C0000AFFEE780B400AFFEE780B400AFFEE75B
:10156C0080B400AFFEE780B400AF00BFBD4680BCC6
:10157C00704780B400AF00BFBD4680BC704780B4DC
:10158C0000AF00BFBD4680BC704780B500AF00F017
:10159C007FF800BF80BD000080B500AF024800F0AE
:1015AC00DBFF00BF80BD00BFAC00002080B400AFEB
:1015BC0000BFBD4680BC7047FFF7F8FF0B480C49D5
:1015CC000C4A002302E0D458C4500433C4188C4293
:1015DC00F9D3094A094C002301E013600432A242FA
:1015EC00FBD301F0F9FAFFF7BFFD704700000020B4
:1015FC0074000020802C000874000020980100204A
:10160C00FEE7000080B500AF084B1B68074A43F0AB
:10161C0010031360032000F023F90F2000F008F8EA
:10162C00FFF73CFF0023184680BD00BF002002409E
:10163C0080B582B000AF7860124B1A68124B1B78E1
:10164C0019464FF47A73B3FBF1F3B2FBF3F318467C
:10165C0000F03BF90346002B01D001230EE07B6820
:10166C000F2B0AD8002279684FF0FF3000F003F9F5
:10167C00064A7B681360002300E0012318460837F4
:10168C00BD4680BD68000020700000206C0000206A
:10169C0080B400AF054B1B781A46054B1B681344EE
:1016AC00034A136000BFBD4680BC70477000002029
:1016BC009401002080B400AF024B1B681846BD4655
:1016CC0080BC70479401002080B485B000AF786076
:1016DC007B6803F00703FB600C4BDB68BB60BA68EC
:1016EC004FF6FF031340BB60FB681A02BB68134341
:1016FC0043F0BF6343F40033BB60044ABB68D36060
:10170C0000BF1437BD4680BC704700BF00ED00E041
:10171C0080B400AF044BDB681B0A03F007031846C8
:10172C00BD4680BC704700BF00ED00E080B483B0C4
:10173C0000AF0346FB7197F90730002B0BDBFB79ED
:10174C0003F01F02064997F907305B09012000FAE4
:10175C0002F241F8232000BF0C37BD4680BC704715
:10176C0000E100E080B483B000AF03463960FB7148
:10177C0097F90730002B0ADB3B68DAB20C4997F972
:10178C0007301201D2B20B4483F800230AE03B6805
:10179C00DAB20849FB7903F00F03043B1201D2B211
:1017AC000B441A7600BF0C37BD4680BC704700BF97
:1017BC0000E100E000ED00E080B489B000AFF8601B
:1017CC00B9607A60FB6803F00703FB61FB69C3F146
:1017DC000703042B28BF0423BB61FB690433062BCE
:1017EC0002D9FB69033B00E000237B614FF0FF3221
:1017FC00BB6902FA03F3DA43BB681A407B699A406F
:10180C004FF0FF317B6901FA03F3D9437B680B403E
:10181C00134318462437BD4680BC704780B582B050
:10182C0000AF78607B68013BB3F1807F01D301236B
:10183C000FE00A4A7B68013B53600F214FF0FF30E9
:10184C00FFF790FF054B00229A60044B07221A60A9
:10185C00002318460837BD4680BD00BF10E000E0ED
:10186C0080B582B000AF78607868FFF72DFF00BFBD
:10187C000837BD4680BD80B586B000AF0346B96061
:10188C007A60FB7300237B61FFF742FF78617A6813
:10189C00B9687869FFF790FF024697F90F30114647
:1018AC001846FFF75FFF00BF1837BD4680BD80B5F7
:1018BC0082B000AF0346FB7197F907301846FFF76B
:1018CC0035FF00BF0837BD4680BD80B582B000AF84
:1018DC0078607868FFF7A2FF034618460837BD46C4
:1018EC0080BD000080B48BB000AF786039600023FD
:1018FC007B6200233B6248E101227B6A02FA03F31C
:10190C00FB613B681B68FA691340BB61BA69FB69F0
:10191C009A4240F037813B685B68A34A93425ED0A1
:10192C00A14A934275D8A14A934258D09F4A9342F8
:10193C006FD89F4A934252D09D4A934269D89D4A90
:10194C0093424CD09B4A934263D89B4A934246D0D5
:10195C00994A93425DD8122B2AD8122B59D801A23E
:10196C0052F823F0EB190008C5190008D719000824
:10197C00191A00081F1A00081F1A00081F1A00085D
:10198C001F1A00081F1A00081F1A00081F1A000847
:10199C001F1A00081F1A00081F1A00081F1A000837
:1019AC001F1A00081F1A0008CD190008E1190008B9
:1019BC00824A934213D02CE03B68DB683B6229E0FF
:1019CC003B68DB6804333B6224E03B68DB6808332C
:1019DC003B621FE03B68DB680C333B621AE03B6800
:1019EC009B68002B02D104233B6213E03B689B688D
:1019FC00012B05D108233B627B68FA691A6109E067
:101A0C0008233B627B68FA695A6103E000233B625E
:101A1C0000E000BFBB69FF2B01D87B6801E07B684D
:101A2C0004337B61BB69FF2B02D87B6A9B0002E00D
:101A3C007B6A083B9B003B617B691A680F213B6901
:101A4C0001FA03F3DB431A40396A3B6901FA03F3E9
:101A5C001A437B691A603B685B6803F08053002B68
:101A6C0000F09080564B9B69554A43F001039361FB
:101A7C00534B9B6903F00103BB60BB68514A7B6A03
:101A8C009B08023352F82330FB607B6A03F003039C
:101A9C009B000F2202FA03F3DB43FA681340FB604E
:101AAC007B68494A93420DD07B68484A934207D0E1
:101ABC007B68474A934201D1022304E0032302E0EE
:101ACC00012300E000237A6A02F0030292009340A3
:101ADC00FA681343FB603B497B6A9B080233FA6844
:101AEC0041F823203B685B6803F48013002B06D07D
:101AFC00384B9A683749BB6913438B6006E0354B0A
:101B0C009A68BB69DB43334913408B603B685B6865
:101B1C0003F40013002B06D02E4BDA682D49BB6959
:101B2C001343CB6006E02B4BDA68BB69DB432949D6
:101B3C001340CB603B685B6803F40033002B06D08A
:101B4C00244B5A682349BB6913434B6006E0214B75
:101B5C005A68BB69DB431F4913404B603B685B68A9
:101B6C0003F48033002B06D01A4B1A681949BB6951
:101B7C0013430B6006E0174B1A68BB69DB4315492E
:101B8C0013400B607B6A01337B623B681A687B6A8B
:101B9C0022FA03F3002B7FF4AFAE00BF00BF2C374B
:101BAC00BD4680BC704700BF0000321000003110F1
:101BBC000000221000002110000012100000111073
:101BCC00001002400000014000080140000C0140E0
:101BDC00001001400004014080B485B000AF786073
:101BEC000B467B807B689A687B881340002B02D065
:101BFC000123FB7301E00023FB73FB7B18461437B6
:101C0C00BD4680BC704780B483B000AF78600B4693
:101C1C007B8013467B707B78002B03D07A887B68A3
:101C2C001A6103E07B881A047B681A6100BF0C37C9
:101C3C00BD4680BC704780B485B000AF78600B4661
:101C4C007B807B68DB68FB607A88FB6813401A0436
:101C5C00FB68D9437B880B401A437B681A6100BF31
:101C6C001437BD4680BC704780B586B000AF786035
:101C7C007B68002B01D101236CE27B681B6803F0AD
:101C8C000103002B00F08780924B5B6803F00C0380
:101C9C00042B0CD08F4B5B6803F00C03082B12D178
:101CAC008C4B5B6803F48033B3F5803F0BD1894BCD
:101CBC001B6803F40033002B6CD07B685B68002B33
:101CCC0068D1012346E27B685B68B3F5803F06D19F
:101CDC00804B1B687F4A43F4803313602EE07B6893
:101CEC005B68002B0CD17B4B1B687A4A23F4803346
:101CFC001360784B1B68774A23F4802313601DE034
:101D0C007B685B68B3F5A02F0CD1724B1B68714AD2
:101D1C0043F4802313606F4B1B686E4A43F480338B
:101D2C0013600BE06B4B1B686A4A23F4803313601F
:101D3C00684B1B68674A23F4802313607B685B68DD
:101D4C00002B13D0FFF7B6FC386108E0FFF7B2FCAC
:101D5C0002463B69D31A642B01D90323FAE15D4B8C
:101D6C001B6803F40033002BF0D014E0FFF7A2FC47
:101D7C00386108E0FFF79EFC02463B69D31A642BDE
:101D8C0001D90323E6E1534B1B6803F40033002B0A
:101D9C00F0D100E000BF7B681B6803F00203002B4E
:101DAC0063D04C4B5B6803F00C03002B0BD0494BFE
:101DBC005B6803F00C03082B1CD1464B5B6803F4E7
:101DCC008033002B16D1434B1B6803F00203002B0E
:101DDC0005D07B681B69012B01D00123BAE13D4B77
:101DEC001B6823F0F8027B685B69DB0039491343FD
:101DFC000B603AE07B681B69002B20D0364B01222C
:101E0C001A60FFF757FC386108E0FFF753FC0246F5
:101E1C003B69D31A022B01D903239BE12D4B1B6881
:101E2C0003F00203002BF0D02A4B1B6823F0F802BE
:101E3C007B685B69DB00274913430B6015E0264B7D
:101E4C0000221A60FFF736FC386108E0FFF732FC1D
:101E5C0002463B69D31A022B01D903237AE11D4BAD
:101E6C001B6803F00203002BF0D17B681B6803F0A6
:101E7C000803002B3AD07B689B69002B19D0174BB9
:101E8C0001221A60FFF716FC386108E0FFF712FC1C
:101E9C0002463B69D31A022B01D903235AE10D4B9D
:101EAC005B6A03F00203002BF0D0012000F09AFAD9
:101EBC001CE00A4B00221A60FFF7FCFB38610FE0B4
:101ECC00FFF7F8FB02463B69D31A022B08D9032310
:101EDC0040E100BF00100240000042428004424238
:101EEC009E4B5B6A03F00203002BE9D17B681B68F5
:101EFC0003F00403002B00F0A6800023FB75974B26
:101F0C00DB6903F08053002B0DD1944BDB69934AB2
:101F1C0043F08053D361914BDB6903F08053BB607A
:101F2C00BB680123FB758E4B1B6803F48073002B7D
:101F3C0018D18B4B1B688A4A43F480731360FFF7EC
:101F4C00B9FB386108E0FFF7B5FB02463B69D31AD1
:101F5C00642B01D90323FDE0814B1B6803F48073D0
:101F6C00002BF0D07B68DB68012B06D17B4B1B6A06
:101F7C007A4A43F0010313622DE07B68DB68002B87
:101F8C000CD1764B1B6A754A23F001031362734B19
:101F9C001B6A724A23F0040313621CE07B68DB6843
:101FAC00052B0CD16D4B1B6A6C4A43F00403136276
:101FBC006A4B1B6A694A43F0010313620BE0674BDF
:101FCC001B6A664A23F001031362644B1B6A634A63
:101FDC0023F0040313627B68DB68002B15D0FFF73A
:101FEC0069FB38610AE0FFF765FB02463B69D31ACF
:101FFC0041F28832934201D90323ABE0574B1B6A61
:10200C0003F00203002BEED014E0FFF753FB386112
:10201C000AE0FFF74FFB02463B69D31A41F28832C4
:10202C00934201D9032395E04C4B1B6A03F0020346
:10203C00002BEED1FB7D012B05D1484BDB69474AC8
:10204C0023F08053D3617B68DB69002B00F0818027
:10205C00424B5B6803F00C03082B61D07B68DB6997
:10206C00022B46D13F4B00221A60FFF723FB38614D
:10207C0008E0FFF71FFB02463B69D31A022B01D97C
:10208C00032367E0354B1B6803F00073002BF0D182
:10209C007B681B6AB3F5803F08D1304B5B6823F437
:1020AC0000327B689B682D4913434B602B4B5B685C
:1020BC0023F474127B68196A7B685B6A0B432749AB
:1020CC0013434B60274B01221A60FFF7F3FA386178
:1020DC0008E0FFF7EFFA02463B69D31A022B01D94D
:1020EC00032337E01D4B1B6803F00073002BF0D06B
:1020FC002FE01C4B00221A60FFF7DCFA386108E075
:10210C00FFF7D8FA02463B69D31A022B01D90323F5
:10211C0020E0124B1B6803F00073002BF0D118E089
:10212C007B68DB69012B01D1012313E00B4B5B684E
:10213C00FB60FB6803F480327B681B6A9A4206D111
:10214C00FB6803F470127B685B6A9A4201D001232E
:10215C0000E0002318461837BD4680BD0010024031
:10216C00007000406000424280B584B000AF7860DF
:10217C0039607B68002B01D10123D0E06A4B1B68CE
:10218C0003F007033A689A4210D9674B1B6823F097
:10219C00070265493B6813430B60634B1B6803F0F4
:1021AC0007033A689A4201D00123B8E07B681B68A8
:1021BC0003F00203002B20D07B681B6803F00403A0
:1021CC00002B05D0594B5B68584A43F4E0635360CD
:1021DC007B681B6803F00803002B05D0534B5B682E
:1021EC00524A43F460535360504B5B6823F0F00247
:1021FC007B689B684D4913434B607B681B6803F0FD
:10220C000103002B40D07B685B68012B07D1474B47
:10221C001B6803F40033002B15D101237FE07B688E
:10222C005B68022B07D1414B1B6803F00073002B3A
:10223C0009D1012373E03D4B1B6803F00203002B13
:10224C0001D101236BE0394B5B6823F003027B68FF
:10225C005B68364913434B60FFF72CFAF8600AE0D1
:10226C00FFF728FA0246FB68D31A41F288329342F0
:10227C0001D9032353E02D4B5B6803F00C027B6800
:10228C005B689B009A42EBD1274B1B6803F007035A
:10229C003A689A4210D2244B1B6823F00702224959
:1022AC003B6813430B60204B1B6803F007033A6831
:1022BC009A4201D0012332E07B681B6803F00403CF
:1022CC00002B08D0194B5B6823F4E0627B68DB6859
:1022DC00164913434B607B681B6803F00803002B03
:1022EC0009D0124B5B6823F460527B681B69DB00DE
:1022FC000E4913434B6000F021F802460B4B5B6810
:10230C001B0903F00F030A49CB5C22FA03F3094AB9
:10231C001360094B1B681846FFF78AF9002318460F
:10232C001037BD4680BD00BF0020024000100240A7
:10233C00542C0008680000206C00002080B487B08A
:10234C0000AF0023FB600023BB6000237B610023F4
:10235C007B6000233B611E4B5B68FB60FB6803F0FA
:10236C000C03042B02D0082B03D027E0194B3B6144
:10237C0027E0FB689B0C03F00F03174AD35C7B60D0
:10238C00FB6803F48033002B10D0114B5B685B0CA3
:10239C0003F00103114AD35CBB607B680D4A02FB5E
:1023AC0003F2BB68B2FBF3F37B6104E07B680C4A7D
:1023BC0002FB03F37B617B693B6102E0054B3B61F4
:1023CC0000BF3B6918461C37BD4680BC704700BF38
:1023DC000010024000127A00642C0008742C0008D3
:1023EC0000093D0080B485B000AF78600A4B1B68D3
:1023FC000A4AA2FB03235B0A7A6802FB03F3FB6025
:10240C0000BFFB685A1EFA60002BF9D100BF00BF59
:10241C001437BD4680BC704768000020D34D621055
:10242C0080B582B000AF78607B68002B01D10123AE
:10243C0041E07B6893F83D30DBB2002B06D17B6822
:10244C00002283F83C207868FFF75AF87B68022258
:10245C0083F83D207B681A687B6804331946104664
:10246C0000F056FA7B68012283F846207B68012233
:10247C0083F83E207B68012283F83F207B68012291
:10248C0083F840207B68012283F841207B6801227D
:10249C0083F842207B68012283F843207B68012269
:1024AC0083F844207B68012283F845207B68012255
:1024BC0083F83D20002318460837BD4680BD000038
:1024CC0080B485B000AF78607B6893F83D30DBB2A8
:1024DC00012B01D0012335E07B68022283F83D20DB
:1024EC007B681B68DA687B681B6842F00102DA6063
:1024FC007B681B68164A934209D07B681B68B3F152
:10250C00804F04D07B681B68124A934211D17B68C0
:10251C001B689B6803F00703FB60FB68062B10D05D
:10252C007B681B681A687B681B6842F001021A60A2
:10253C0007E07B681B681A687B681B6842F0010225
:10254C001A60002318461437BD4680BC704700BF84
:10255C00002C01400004004080B584B000AF7860CE
:10256C007B681B68DB68FB607B681B681B69BB6056
:10257C00BB6803F00203002B20D0FB6803F00203BE
:10258C00002B1BD07B681B686FF002021A617B6802
:10259C0001221A777B681B689B6903F00303002BED
:1025AC0003D0786800F098F905E0786800F08BF9B2
:1025BC00786800F09AF97B6800221A77BB6803F000
:1025CC000403002B20D0FB6803F00403002B1BD06A
:1025DC007B681B686FF004021A617B6802221A7711
:1025EC007B681B689B6903F44073002B03D07868ED
:1025FC0000F072F905E0786800F065F9786800F091
:10260C0074F97B6800221A77BB6803F00803002B6F
:10261C0020D0FB6803F00803002B1BD07B681B68E1
:10262C006FF008021A617B6804221A777B681B68BA
:10263C00DB6903F00303002B03D0786800F04CF93E
:10264C0005E0786800F03FF9786800F04EF97B6897
:10265C0000221A77BB6803F01003002B20D0FB6814
:10266C0003F01003002B1BD07B681B686FF010026B
:10267C001A617B6808221A777B681B68DB6903F494
:10268C004073002B03D0786800F026F905E07868D9
:10269C0000F019F9786800F028F97B6800221A77A5
:1026AC00BB6803F00103002B0CD0FB6803F00103A3
:1026BC00002B07D07B681B686FF001021A617868E9
:1026CC00FEF77EFEBB6803F08003002B0CD0FB688A
:1026DC0003F08003002B07D07B681B686FF080022F
:1026EC001A61786800F06FFABB6803F04003002BA6
:1026FC000CD0FB6803F04003002B07D07B681B68F1
:10270C006FF040021A61786800F0F8F8BB6803F0CB
:10271C002003002B0CD0FB6803F02003002B07D008
:10272C007B681B686FF020021A61786800F042FA2F
:10273C0000BF1037BD4680BD80B584B000AF786057
:10274C0039600023FB737B6893F83C30012B01D17B
:10275C000223B4E07B68012283F83C207B680222D0
:10276C0083F83D207B681B689B68BB60BB6823F0CB
:10277C007703BB60BB6823F47F43BB607B681B683B
:10278C00BA689A603B681B68B3F5005F3ED0B3F53E
:10279C00005F00F28780B3F5805F00F08680B3F5B0
:1027AC00805F7FD8702B1AD0702B7BD8602B50D0C9
:1027BC00602B77D8502B3CD0502B73D8402B58D053
:1027CC00402B6FD8302B64D0302B6BD8202B60D0A3
:1027DC00202B67D8002B5CD0102B5AD062E07B6882
:1027EC0018683B6899683B685A683B68DB6800F07E
:1027FC006AF97B681B689B68BB60BB6843F0770316
:10280C00BB607B681B68BA689A604FE07B6818688D
:10281C003B6899683B685A683B68DB6800F053F981
:10282C007B681B689A687B681B6842F480429A60DC
:10283C003CE07B6818683B6859683B68DB681A4663
:10284C0000F0CAF87B681B685021184600F021F98B
:10285C002CE07B6818683B6859683B68DB681A4653
:10286C0000F0E8F87B681B686021184600F011F94D
:10287C001CE07B6818683B6859683B68DB681A4643
:10288C0000F0AAF87B681B684021184600F001F99B
:10289C000CE07B681A683B681B681946104600F010
:1028AC00F8F803E00123FB7300E000BF7B68012212
:1028BC0083F83D207B68002283F83C20FB7B184684
:1028CC001037BD4680BD80B483B000AF786000BFC8
:1028DC000C37BD4680BC704780B483B000AF7860C5
:1028EC0000BF0C37BD4680BC704780B483B000AFCE
:1028FC00786000BF0C37BD4680BC704780B483B095
:10290C0000AF786000BF0C37BD4680BC704700003C
:10291C0080B485B000AF786039607B681B68FB6061
:10292C007B682B4A934207D07B68B3F1804F03D06E
:10293C007B68284A934208D1FB6823F07003FB6044
:10294C003B685B68FA681343FB607B68204A9342E0
:10295C0007D07B68B3F1804F03D07B681D4A93424C
:10296C0008D1FB6823F44073FB603B68DB68FA68B2
:10297C001343FB60FB6823F080023B685B691343E5
:10298C00FB607B68FA681A603B689A687B68DA625D
:10299C003B681A687B689A627B680D4A934203D144
:1029AC003B681A697B681A637B6801225A617B68F1
:1029BC001B6903F00103002B05D07B681B6923F016
:1029CC0001027B681A6100BF1437BD4680BC70479A
:1029DC00002C01400004004080B487B000AFF860C8
:1029EC00B9607A60FB681B6A7B61FB681B6A23F029
:1029FC000102FB681A62FB689B693B613B6923F02F
:102A0C00F0033B617B681B013A6913433B617B69B3
:102A1C0023F00A037B617A69BB6813437B61FB6813
:102A2C003A699A61FB687A691A6200BF1C37BD4625
:102A3C0080BC704780B487B000AFF860B9607A6032
:102A4C00FB681B6A7B61FB681B6A23F01002FB6846
:102A5C001A62FB689B693B613B6923F470433B61E1
:102A6C007B681B033A6913433B617B6923F0A0032A
:102A7C007B61BB681B017A6913437B61FB683A6914
:102A8C009A61FB687A691A6200BF1C37BD4680BC2C
:102A9C00704780B485B000AF786039607B689B6804
:102AAC00FB60FB6823F07003FB603A68FB68134320
:102ABC0043F00703FB607B68FA689A6000BF143729
:102ACC00BD4680BC704780B487B000AFF860B96079
:102ADC007A603B60FB689B687B617B6923F47F4376
:102AEC007B613B681A027B681A43BB6813437A69A3
:102AFC0013437B61FB687A699A6000BF1C37BD4643
:102B0C0080BC704780B485B000AF786039607B685A
:102B1C0093F83C30012B01D1022341E07B68012268
:102B2C0083F83C207B68022283F83D207B681B687D
:102B3C005B68FB607B681B689B68BB60FB6823F071
:102B4C007003FB603B681B68FA681343FB607B688F
:102B5C001B68FA685A607B681B68144A934209D058
:102B6C007B681B68B3F1804F04D07B681B68104AEC
:102B7C0093420CD1BB6823F08003BB603B685B685D
:102B8C00BA681343BB607B681B68BA689A607B6841
:102B9C00012283F83D207B68002283F83C2000232F
:102BAC0018461437BD4680BC704700BF002C01404E
:102BBC000004004080B483B000AF786000BF0C37D5
:102BCC00BD4680BC704780B483B000AF786000BF56
:102BDC000C37BD4680BC704770B500260C4D0D4CB3
:102BEC00641BA410A64209D100F022F800260A4D5D
:102BFC000A4C641BA410A64205D170BD55F8043BC9
:102C0C0098470136EEE755F8043B98470136F2E752
:102C1C00782C0008782C0008782C00087C2C0008F4
:102C2C0003460244934200D1704703F8011BF9E7B5
:102C3C00F8B500BFF8BC08BC9E467047F8B500BF9D
:082C4C00F8BC08BC9E4670476D
:102C54000000000000000000010203040607080948
:102C640002030405060708090A0B0C0D0E0F1010C9
:042C74000102000059
:042C7800310100081E
:042C7C000D0100083E
:102C8000C8000000C8000000C800000001000000EB
:102C90000100000001000000010000000100000030
:102CA0000100000001000000010000000100000020
:102CB00001000000010000000100000000080140C8
:102CC00000080140000801404000800000010000B1
:102CD0000100000001000000010000008813000056
:102CE000D0070000B80B000000127A0010000000AE
:042CF00001000000DF
:04000005080015C515
:00000001FF
