:020000040800F2
:100000000028002059180008251600082B160008A3
:1000100031160008371600083D16000800000000E1
:10002000000000000000000000000000431600086F
:100030004F160008000000005B1600086716000855
:10004000A1180008A1180008A1180008A1180008AC
:10005000A1180008A1180008A1180008A11800089C
:10006000A1180008A1180008A1180008A11800088C
:10007000A1180008A1180008A1180008A11800087C
:10008000A1180008A1180008A1180008A11800086C
:10009000A1180008A1180008A1180008A11800085C
:1000A000A1180008A1180008A1180008A11800084C
:1000B00075160008A118000800000000A11800082B
:1000C000A11800080000000000000000A1180008AE
:1000D00000000000A1180008A1180008000000009E
:1000E000A1180008A1180008A118000800000000CD
:1000F0000000000000000000000000000000000000
:0C01000000000000000000005FF808F1A3
:10010C0010B5054C237833B9044B13B10448AFF345
:10011C0000800123237010BD8C0000200000000023
:10012C00D02E000808B5034B1BB103490348AFF3AD
:10013C00008008BD0000000090000020D02E0008B8
:10014C0080B483B000AF7860094A7B6852F82330E2
:10015C00012B06D1064A7B68002142F823100123AB
:10016C0000E0002318460C37BD4680BC704700BF2A
:10017C00A800002080B582B000AF00237B607AE03D
:10018C00414A7B6852F8232040497B6841F8232080
:10019C003F4A7B6852F823203B497B6841F8232077
:1001AC003C4A7B6852F823203B497B6831F813307A
:1001BC001946104601F05AFE03461946344A7B682C
:1001CC0042F82310314A7B6852F823202E497B6871
:1001DC0051F823309A424BD12B4A7B6852F823209A
:1001EC002B497B6851F823309A4241D12B4A7B68CA
:1001FC0052F8232026497B6851F823309A4218D0B4
:10020C00234A7B6852F8232024497B6841F8232039
:10021C001F4A7B6852F82330002B29D1204A7B6877
:10022C00012142F823101F4A7B68C82142F8231091
:10023C001EE0174A7B6852F82330002B18D1194A5C
:10024C007B6852F823305A1E16497B6841F82320EC
:10025C00144A7B6852F82330002B09D1104A7B6872
:10026C00012142F823100F4A7B68C82142F8231061
:10027C007B6801337B607B68032B81DD00BF00BF93
:10028C000837BD4680BD00BF2000002010000020B4
:10029C0030000020500000206000002040000020B2
:1002AC00A80000200000002080B582B000AF78606C
:1002BC007B68092B00F2808101A252F823F000BF69
:1002CC00F50200083D03000885030008CD03000873
:1002DC00150400085D040008A5040008ED040008DE
:1002EC00350500087D05000800220121B54801F004
:1002FC00D4FD00220221B34801F0CFFD00220421DD
:10030C00B04801F0CAFD00220821AE4801F0C5FD3D
:10031C0000221021AB4801F0C0FD00222021A94889
:10032C0001F0BBFD01224021A64801F0B6FD44E1DD
:10033C0001220121A34801F0B0FD00220221A148B5
:10034C0001F0ABFD002204219E4801F0A6FD012224
:10035C0008219C4801F0A1FD01221021994801F0CF
:10036C009CFD01222021974801F097FD012240219C
:10037C00944801F092FD20E100220121914801F006
:10038C008CFD002202218F4801F087FD01220421FF
:10039C008C4801F082FD002208218A4801F07DFD85
:1003AC0000221021874801F078FD01222021854888
:1003BC0001F073FD00224021824801F06EFDFCE04B
:1003CC00002201217F4801F068FD002202217D48B6
:1003DC0001F063FD002204217A4801F05EFD002249
:1003EC000821784801F059FD01221021754801F0CF
:1003FC0054FD01222021734801F04FFD00224021C1
:10040C00704801F04AFDD8E0012201216D4801F04D
:10041C0044FD002202216B4801F03FFD0022042123
:10042C00684801F03AFD01220821664801F035FDCB
:10043C0001221021634801F030FD00222021614887
:10044C0001F02BFD002240215E4801F026FDB4E0B6
:10045C00002201215B4801F020FD012202215948B4
:10046C0001F01BFD00220421564801F016FD00226C
:10047C000821544801F011FD01221021514801F0CE
:10048C000CFD002220214F4801F007FD00224021E5
:10049C004C4801F002FD90E000220121494801F096
:1004AC00FCFC01220221474801F0F7FC0022042148
:1004BC00444801F0F2FC00220821424801F0EDFC16
:1004CC00002210213F4801F0E8FC002220213D4889
:1004DC0001F0E3FC002240213A4801F0DEFC6CE024
:1004EC0000220121374801F0D8FC002202213548B6
:1004FC0001F0D3FC00220421324801F0CEFC012291
:10050C000821304801F0C9FC012210212D4801F0CE
:10051C00C4FC012220212B4801F0BFFC0122402108
:10052C00284801F0BAFC48E000220121254801F0DE
:10053C00B4FC00220221234801F0AFFC002204216C
:10054C00204801F0AAFC002208211E4801F0A5FC5D
:10055C00002210211B4801F0A0FC00222021194888
:10056C0001F09BFC00224021164801F096FC24E08F
:10057C0000220121134801F090FC002202211148B5
:10058C0001F08BFC002204210E4801F086FC0022B5
:10059C0008210C4801F081FC01221021094801F0CE
:1005AC007CFC00222021074801F077FC002240212E
:1005BC00044801F072FC00E000BF00BF0837BD46E4
:1005CC0080BD00BF000C014080B582B000AF7860E8
:1005DC007B68092B00F2BC8101A252F823F000BF0A
:1005EC001506000869060008BD060008110700087A
:1005FC0065070008B90700080D0800086108000825
:10060C00B50800080909000800228021D34801F030
:10061C0044FC00224FF48071D04801F03EFC0022D3
:10062C004FF40071CD4801F038FC00224FF480618A
:10063C00CA4801F032FC00224FF40061C74801F0B7
:10064C002CFC00224FF48051C44801F026FC0122FE
:10065C004FF40051C14801F020FC7AE101228021C5
:10066C00BE4801F01AFC00224FF48071BB4801F027
:10067C0014FC00224FF40071B84801F00EFC01226A
:10068C004FF48061B54801F008FC01224FF4006181
:10069C00B24801F002FC01224FF48051AF4801F046
:1006AC00FCFB01224FF40051AC4801F0F6FB50E189
:1006BC0000228021A94801F0F0FB00224FF4807148
:1006CC00A64801F0EAFB01224FF40071A34801F0A7
:1006DC00E4FB00224FF48061A04801F0DEFB002215
:1006EC004FF400619D4801F0D8FB01224FF480517A
:1006FC009A4801F0D2FB00224FF40051974801F0C8
:10070C00CCFB26E100228021944801F0C6FB00229C
:10071C004FF48071914801F0C0FB00224FF400713E
:10072C008E4801F0BAFB00224FF480618B4801F037
:10073C00B4FB01224FF40061884801F0AEFB0122AA
:10074C004FF48051854801F0A8FB00224FF4005172
:10075C00824801F0A2FBFCE0012280217F4801F0DD
:10076C009CFB00224FF480717C4801F096FB002228
:10077C004FF40071794801F090FB01224FF4806135
:10078C00764801F08AFB01224FF40061734801F0B6
:10079C0084FB00224FF48051704801F07EFB002254
:1007AC004FF400516D4801F078FBD2E0002280211B
:1007BC006A4801F072FB01224FF48071674801F026
:1007CC006CFB00224FF40071644801F066FB0022C0
:1007DC004FF48061614801F060FB01224FF400612D
:1007EC005E4801F05AFB00224FF480515B4801F047
:1007FC0054FB00224FF40051584801F04EFBA8E086
:10080C0000228021554801F048FB01224FF48071F1
:10081C00524801F042FB00224FF400714F4801F0A6
:10082C003CFB00224FF480614C4801F036FB002267
:10083C004FF40061494801F030FB00224FF4805125
:10084C00464801F02AFB00224FF40051434801F0C6
:10085C0024FB7EE000228021404801F01EFB002298
:10086C004FF480713D4801F018FB00224FF40071E9
:10087C003A4801F012FB01224FF48061374801F035
:10088C000CFB01224FF40061344801F006FB0122FD
:10089C004FF48051314801F000FB01224FF400511C
:1008AC002E4801F0FAFA54E0002280212B4801F086
:1008BC00F4FA00224FF48071284801F0EEFA00227D
:1008CC004FF40071254801F0E8FA00224FF48061E2
:1008DC00224801F0E2FA00224FF400611F4801F0B7
:1008EC00DCFA00224FF480511C4801F0D6FA0022A9
:1008FC004FF40051194801F0D0FA2AE0002280216F
:10090C00164801F0CAFA00224FF48071134801F026
:10091C00C4FA00224FF40071104801F0BEFA002214
:10092C004FF480610D4801F0B8FA01224FF40061D8
:10093C000A4801F0B2FA00224FF48051074801F046
:10094C00ACFA00224FF40051044801F0A6FA00E082
:10095C0000BF00BF0837BD4680BD00BF000C014082
:10096C0080B500AF3A4B1B68002B02D0012B35D061
:10097C006CE000224FF48051364801F08EFA0122CF
:10098C004FF40051334801F088FA334B1B68334A5B
:10099C0082FB03129210DB17D31A1846FFF784FC64
:1009AC002D4B1A682D4B83FB02139910D317C91AC0
:1009BC000B469B000B445B00D11A0846FFF704FE64
:1009CC00032000F08FFD0346012B3CD13221032084
:1009DC0000F070FD1E4B01221A6034E001224FF42E
:1009EC0080511C4801F059FA00224FF4005119486B
:1009FC0001F053FA1A4B1B68184A82FB031292102F
:100A0C00DB17D31A1846FFF74FFC154B1A68134B1C
:100A1C0083FB02139910D317C91A0B469B000B4486
:100A2C005B00D11A0846FFF7CFFD032000F05AFDFA
:100A3C000346012B09D13221032000F03BFD044B6E
:100A4C0000221A6001E000BF00E000BF00BF80BDC3
:100A5C00B800002000080140C000002067666666F0
:100A6C00C400002080B500AF3C4B1B68052B12D195
:100A7C0000224FF480513A4801F00FFA01224FF452
:100A8C000051374801F009FA0020FFF70DFC052052
:100A9C00FFF79AFD60E0334B1B68002B02D0012B53
:100AAC0022D059E000224FF480512D4801F0F5F985
:100ABC0001224FF400512A4801F0EFF90020FFF712
:100ACC00F3FB264B1B681846FFF77EFD032000F056
:100ADC0009FD0346012B3CD13221032000F0EAFC36
:100AEC00204B01221A6034E001224FF480511C4843
:100AFC0001F0D3F900224FF40051194801F0CDF95F
:100B0C00194B1B68194A82FB03129210DB17D31A7C
:100B1C001846FFF7C9FB144B1A68144B83FB0213DE
:100B2C009910D317C91A0B469B000B445B00D11AC2
:100B3C000846FFF749FD032000F0D4FC0346012BC7
:100B4C0009D13221032000F0B5FC064B00221A60BB
:100B5C0001E000BF00E000BF80BD00BF70000020BE
:100B6C0000080140B8000020BC00002067666666E3
:100B7C0080B500AFA94B1B68012B40F04481A84BFA
:100B8C001B68013B032B00F2988001A252F823F062
:100B9C00AD0B0008DD0B00082B0C0008790C0008CD
:100BAC0000F07EFD00F0C0FD00F09CFD9C4B02228D
:100BBC001A609C4B1B689C4A82FB03129211DB1738
:100BCC00D31A9A4A13606421012000F073FC7BE075
:100BDC0000F05AFD00F0A8FD00F084FD012000F0AB
:100BEC0081FC0346012B6AD1904B1B68013B8F4A59
:100BFC0013606421012000F05DFC8C4B1B68002B02
:100C0C005DDC874B03221A60894B1B68864A82FB8A
:100C1C0003129211DB17D31A844A13604FE000F0D1
:100C2C003FFD00F075FD00F05DFD012000F05AFC69
:100C3C000346012B45D17D4B1B68013B7B4A13605E
:100C4C006421012000F036FC784B1B68002B38DC4B
:100C5C00734B04221A60774B1B68734A82FB031296
:100C6C009211DB17D31A714A13602AE000F018FDB9
:100C7C0000F05AFD00F02AFD012000F033FC034681
:100C8C00012B20D1694B1B68013B684A136064211E
:100C9C00012000F00FFC654B1B68002B13DC604B34
:100CAC0002221A605F4B1B685F4A82FB031292118F
:100CBC00DB17D31A5D4A136005E000BF04E000BFE8
:100CCC0002E000BF00E000BF5B4B1B68013B032B45
:100CDC0000F29B8001A252F823F000BFF90C00082F
:100CEC00290D0008770D0008C50D000800F03EFD29
:100CFC0000F084FD00F05EFD4F4B03221A604C4B5C
:100D0C001B68494A82FB03129211DB17D31A4B4A18
:100D1C0013606421022000F0CDFB7DE000F01AFD91
:100D2C0000F06CFD00F046FD022000F0DBFB0346FA
:100D3C00012B6CD1414B1B68013B404A1360642171
:100D4C00022000F0B7FB3D4B1B68002B5FD13A4BE8
:100D5C0003221A60364B1B68334A82FB0312921132
:100D6C00DB17D31A354A136051E000F0FFFC00F09A
:100D7C0039FD00F01FFD022000F0B4FB0346012BEF
:100D8C0047D12E4B1B68013B2C4A13606421022077
:100D9C0000F090FB294B1B68002B3AD1264B042208
:100DAC001A60244B1B68204A82FB03129211DB173A
:100DBC00D31A224A13602CE000F0D8FC00F01EFD80
:100DCC0000F0ECFC022000F08DFB0346012B22D13D
:100DDC001A4B1B68013B194A13606421022000F076
:100DEC0069FB164B1B68002B15D1134B02221A60A2
:100DFC000C4B1B680C4A82FB03129211DB17D31AA3
:100E0C000E4A136007E000BF06E000BF04E000BF1D
:100E1C0002E000BF00E000BF80BD00BF70000020FA
:100E2C006800002074000020D34D6210C000002028
:100E3C007C000020780000206C000020C400002002
:100E4C0080B500AFB24B1B68013B042B00F2508104
:100E5C0001A252F823F000BF790E0008C90E000859
:100E6C00770F000823100008D3100008FFF778FD57
:100E7C000020FFF765F90346012B0FD13221042026
:100E8C0000F018FBA24B02221A60A24B01221A603E
:100E9C0000F0CCFC3221032000F00CFB0320FFF708
:100EAC004FF90346012B40F02781994B05221A601C
:100EBC00994B00221A6000F0B9FC1DE1042000F0EF
:100ECC0011FB0346012B07D13221042000F0F2FA6A
:100EDC0000F0F2FB00F056FC0120FFF731F903465D
:100EEC00012B0BD18B4B1B6801338A4A1360894B46
:100EFC001B68632B02DD874B00221A600220FFF770
:100F0C001FF90346012B0AD1824B1B684FF47A72EE
:100F1C0002FB03F3814A13607E4B01221A60FFF738
:100F2C00A1FD0020FFF70CF90346012B0DD1322156
:100F3C00042000F0BFFA764B03221A60754B012295
:100F4C001A6000F0ADFB00F011FC0320FFF7F8F87D
:100F5C000346012B40F0D2806D4B05221A606E4B7C
:100F6C0000221A6000F062FCC8E0042000F0BAFA1B
:100F7C000346012B07D13221042000F09BFA00F02C
:100F8C00BDFB00F023FC0120FFF7DAF80346012B30
:100F9C000BD1604B1B6801335E4A13605D4B1B68C1
:100FAC00632B02DD5B4B00221A600220FFF7C8F8AE
:100FBC000346012B0AD1574B1B684FF47A7202FB84
:100FCC0003F3574A1360534B01221A60FFF74AFD93
:100FDC000020FFF7B5F80346012B0DD13221042078
:100FEC0000F068FA4A4B04221A604A4B01221A603C
:100FFC0000F078FB00F0DEFB0320FFF7A1F80346BE
:10100C00012B7DD1424B05221A60434B00221A6002
:10101C0000F00CFC74E0042000F064FA0346012B91
:10102C0007D13221042000F045FA00F089FB00F0D2
:10103C00F1FB0120FFF784F80346012B0BD1354B54
:10104C001B680133334A1360324B1B68632B02DD80
:10105C00304B00221A600220FFF772F80346012B76
:10106C000AD12C4B1B684FF47A7202FB03F32D4A06
:10107C001360284B01221A60FFF7F4FC0020FFF7E5
:10108C005FF80346012B0FD1214B01221A60214B33
:10109C0001221A60244B01221A60244B01221A608F
:1010AC0000F042FB00F0AAFB0320FFF749F80346CF
:1010BC00012B27D1164B05221A60174B00221A6000
:1010CC0000F0B4FB1EE00320FFF73AF80346012BB7
:1010DC001AD10F4B01221A600F4B00221A60124BCF
:1010EC0001221A60114B01221A6000F09FFB0BE0E9
:1010FC00074B01221A6008E000BF06E000BF04E0C5
:10110C0000BF02E000BF00E000BF00BF80BD00BF19
:10111C0070000020BC000020C800002074000020DB
:10112C00780000207C000020680000206C0000206B
:10113C0080B500AF3C4B1B68052B6DD13B4B1B683E
:10114C00022B4DD0022B63DC002B02D0012B2FD0B5
:10115C005EE000F06BFBFFF785FC0120FEF7F0FF73
:10116C000346012B0ED1314B01221A6000F08CFA90
:10117C0000F0DAFA00F0B6FA00F0F8FA00F032FB00
:10118C0000F018FB0220FEF7DBFF0346012B45D1D4
:10119C00264B02221A6000F083FA00F0B9FA00F034
:1011AC00A1FA00F0D7FA00F029FB00F003FB35E0C0
:1011BC00FFF758FC0220FEF7C3FF0346012B2FD18B
:1011CC001A4B02221A6000F06BFA00F0A1FA00F040
:1011DC0089FA00F0BFFA00F011FB00F0EBFA1FE007
:1011EC00FFF740FC0120FEF7ABFF0346012B19D1A2
:1011FC000E4B01221A6000F047FA00F095FA00F04D
:10120C0071FA00F0B3FA00F0EDFA00F0D3FA09E04D
:10121C00064B00221A6006E000BF04E000BF02E0AB
:10122C0000BF00E000BF80BD70000020C80000209F
:10123C0080B500AF00F030FB00F03EF800F0C4F8D1
:10124C0000F076F8184801F085FA184B01221A6064
:10125C00174B01221A606421002000F02BF9322177
:10126C00032000F027F900224FF48051114800F0C0
:10127C0014FE00224FF400510E4800F00EFE002028
:10128C0000F030F90346012B07D16421002000F057
:10129C0011F92021074800F018FEFFF769FCFFF751
:1012AC0047FFFFF7CDFDEAE7CC00002068000020E7
:1012BC006C0000200008014080B590B000AF07F131
:1012CC00180328220021184601F0F4FD3B1D0022D2
:1012DC001A605A609A60DA601A610223BB610123BA
:1012EC00BB621023FB6200237B6307F118031846D3
:1012FC0000F004FE0346002B01D000F0D5F80F23BC
:10130C007B600023BB600023FB6000233B61002358
:10131C007B613B1D0021184601F070F80346002B41
:10132C0001D000F0C1F800BF4037BD4680BD0000C1
:10133C0080B586B000AF07F1080300221A605A602E
:10134C009A60DA603B4600221A605A601D4B4FF0DF
:10135C0080421A601B4B41F63F725A60194B0022B7
:10136C009A60184B0922DA60164B00221A61154B51
:10137C0000229A61134801F09DF90346002B01D01D
:10138C0000F092F84FF48053BB6007F10803194644
:10139C000C4801F01BFB0346002B01D000F084F835
:1013AC0000233B6000237B603B461946054801F057
:1013BC00F3FC0346002B01D000F076F800BF183781
:1013CC00BD4680BDCC00002080B586B000AF07F1D3
:1013DC00080300221A605A609A60DA60294B9B69F4
:1013EC00284A43F004039361264B9B6903F00403E2
:1013FC007B607B68234B9B69224A43F00803936113
:10140C00204B9B6903F008033B603B68002243F6CA
:10141C003C611D4800F041FD002243F6FF711B4862
:10142C0000F03BFD43F63C63BB600123FB600023F3
:10143C003B6102237B6107F108031946124800F057
:10144C009BFB44F2C013BB600023FB6001233B6198
:10145C0007F1080319460C4800F08EFB43F6FF73A6
:10146C00BB600123FB6000233B6102237B6107F11E
:10147C0008031946054800F07FFB00BF1837BD462E
:10148C0080BD00BF0010024000080140000C01406C
:10149C0080B582B000AF786000F038F8FEF76AFED5
:1014AC0000BF0837BD4680BD80B400AF72B600BF28
:1014BC00FEE7000080B483B000AF78603960074964
:1014CC007B683A6841F82320054A7B68002142F882
:1014DC00231000BF0C37BD4680BC704714010020A0
:1014EC006401002080B483B000AF7860064A7B684A
:1014FC0052F82330012B01D1012300E000231846C0
:10150C000C37BD4680BC70476401002080B483B0AA
:10151C0000AF00237B601CE0124A7B6852F823303A
:10152C00002B13DD0F4A7B6852F823305A1E0D49ED
:10153C007B6841F823200B4A7B6852F82330002B40
:10154C0004DC094A7B68012142F823107B680133D3
:10155C007B607B68132BDFDD00BF00BF0C37BD4603
:10156C0080BC7047140100206401002080B485B059
:10157C0000AF154B9B69144A43F001039361124B66
:10158C009B6903F00103BB60BB680F4BDB690E4A20
:10159C0043F08053D3610C4BDB6903F080537B60C9
:1015AC007B680A4B5B68FB60FB6823F0E063FB60C5
:1015BC00FB6843F08063FB60044AFB68536000BF28
:1015CC001437BD4680BC704700100240000001403B
:1015DC0080B584B000AF78607B681B68B3F1804F36
:1015EC0013D10C4BDB690B4A43F00103D361094B5C
:1015FC00DB6903F00103FB60FB68002200211C2067
:10160C0000F083FA1C2000F09CFA00BF1037BD4696
:10161C0080BD00BF0010024080B400AFFEE780B474
:10162C0000AFFEE780B400AFFEE780B400AFFEE78A
:10163C0080B400AFFEE780B400AF00BFBD4680BCF5
:10164C00704780B400AF00BFBD4680BC704780B40B
:10165C0000AF00BFBD4680BC704780B500AF00F046
:10166C0061F900BF80BD000080B500AF024801F0F9
:10167C00BDF800BF80BD00BFCC00002080B400AF1F
:10168C0000BFBD4680BC704780B500AF002204216E
:10169C00024800F002FC00BF80BD00BF0008014002
:1016AC0080B500AF01220421024800F0F6FB00BF18
:1016BC0080BD00BF0008014080B500AF0421024886
:1016CC0000F003FC00BF80BD0008014080B500AFF6
:1016DC0000220821024800F0E0FB00BF80BD00BFE3
:1016EC000008014080B500AF01220821024800F03B
:1016FC00D4FB00BF80BD00BF0008014080B500AF27
:10170C000821024800F0E1FB00BF80BD0008014049
:10171C0080B500AF00221021024800F0BEFB00BFD4
:10172C0080BD00BF0008014080B500AF0122102130
:10173C00024800F0B2FB00BF80BD00BF00080140B2
:10174C0080B500AF1021024800F0BFFB00BF80BD88
:10175C000008014080B500AF00224FF40071024830
:10176C0000F09BFB00BF80BD0008014080B500AFBE
:10177C0001224FF40071024800F08FFB00BF80BDC6
:10178C000008014080B500AF4FF40071024800F032
:10179C009CFB00BF80BD00BF0008014080B500AFBE
:1017AC0000224FF48061024800F077FB00BF80BD3F
:1017BC000008014080B500AF01224FF4806102485F
:1017CC0000F06BFB00BF80BD0008014080B500AF8E
:1017DC004FF48061024800F078FB00BF80BD00BF71
:1017EC000008014080B500AF00224FF400610248B0
:1017FC0000F053FB00BF80BD0008014080B500AF76
:10180C0001224FF40061024800F047FB00BF80BD8D
:10181C000008014080B500AF4FF40061024800F0B1
:10182C0054FB00BF80BD00BF0008014080B500AF75
:10183C00FFF77AFFFFF734FFFFF754FFFFF7DEFFE8
:10184C00FFF794FFFFF7B6FF00BF80BDFFF716FF51
:10185C000B480C490C4A002302E0D458C450043302
:10186C00C4188C42F9D3094A094C002301E01360D7
:10187C000432A242FBD301F0F9FAFFF7D9FC70470E
:10188C00000000208C000020142F00088C00002089
:10189C00B8010020FEE7000080B500AF084B1B68C4
:1018AC00074A43F010031360032000F023F90F20C4
:1018BC0000F008F8FFF75AFE0023184680BD00BF61
:1018CC000020024080B582B000AF7860124B1A68DD
:1018DC00124B1B7819464FF47A73B3FBF1F3B2FB3E
:1018EC00F3F3184600F03BF90346002B01D001231B
:1018FC000EE07B680F2B0AD8002279684FF0FF307E
:10190C0000F003F9064A7B681360002300E0012312
:10191C0018460837BD4680BD800000208800002096
:10192C008400002080B400AF054B1B781A46054B91
:10193C001B681344034A136000BFBD4680BC70474C
:10194C0088000020B401002080B400AF024B1B685B
:10195C001846BD4680BC7047B401002080B485B0E9
:10196C0000AF78607B6803F00703FB600C4BDB680F
:10197C00BB60BA684FF6FF031340BB60FB681A02EA
:10198C00BB68134343F0BF6343F40033BB60044AAA
:10199C00BB68D36000BF1437BD4680BC704700BF26
:1019AC0000ED00E080B400AF044BDB681B0A03F0D1
:1019BC0007031846BD4680BC704700BF00ED00E031
:1019CC0080B483B000AF0346FB7197F90730002B4E
:1019DC000BDBFB7903F01F02064997F907305B0913
:1019EC00012000FA02F241F8232000BF0C37BD465B
:1019FC0080BC704700E100E080B483B000AF0346C8
:101A0C003960FB7197F90730002B0ADB3B68DAB2BF
:101A1C000C4997F907301201D2B20B4483F800231A
:101A2C000AE03B68DAB20849FB7903F00F03043B88
:101A3C001201D2B20B441A7600BF0C37BD4680BCE3
:101A4C00704700BF00E100E000ED00E080B489B019
:101A5C0000AFF860B9607A60FB6803F00703FB61C4
:101A6C00FB69C3F10703042B28BF0423BB61FB698B
:101A7C000433062B02D9FB69033B00E000237B6196
:101A8C004FF0FF32BB6902FA03F3DA43BB681A402A
:101A9C007B699A404FF0FF317B6901FA03F3D9431C
:101AAC007B680B40134318462437BD4680BC7047F7
:101ABC0080B582B000AF78607B68013BB3F1807F6A
:101ACC0001D301230FE00A4A7B68013B53600F21CD
:101ADC004FF0FF30FFF790FF054B00229A60044B4C
:101AEC0007221A60002318460837BD4680BD00BF88
:101AFC0010E000E080B582B000AF78607868FFF746
:101B0C002DFF00BF0837BD4680BD80B586B000AF45
:101B1C000346B9607A60FB7300237B61FFF742FFD9
:101B2C0078617A68B9687869FFF790FF024697F98F
:101B3C000F3011461846FFF75FFF00BF1837BD4640
:101B4C0080BD80B582B000AF0346FB7197F90730BA
:101B5C001846FFF735FF00BF0837BD4680BD80B57E
:101B6C0082B000AF78607868FFF7A2FF0346184692
:101B7C000837BD4680BD000080B48BB000AF7860E4
:101B8C00396000237B6200233B6248E101227B6ABF
:101B9C0002FA03F3FB613B681B68FA691340BB61F3
:101BAC00BA69FB699A4240F037813B685B68A34A8B
:101BBC0093425ED0A14A934275D8A14A934258D021
:101BCC009F4A93426FD89F4A934252D09D4A934268
:101BDC0069D89D4A93424CD09B4A934263D89B4A06
:101BEC00934246D0994A93425DD8122B2AD8122B95
:101BFC0059D801A252F823F07F1C0008591C000888
:101C0C006B1C0008AD1C0008B31C0008B31C0008BA
:101C1C00B31C0008B31C0008B31C0008B31C00085C
:101C2C00B31C0008B31C0008B31C0008B31C00084C
:101C3C00B31C0008B31C0008B31C0008611C00088E
:101C4C00751C0008824A934213D02CE03B68DB6879
:101C5C003B6229E03B68DB6804333B6224E03B6871
:101C6C00DB6808333B621FE03B68DB680C333B628C
:101C7C001AE03B689B68002B02D104233B6213E003
:101C8C003B689B68012B05D108233B627B68FA6992
:101C9C001A6109E008233B627B68FA695A6103E028
:101CAC0000233B6200E000BFBB69FF2B01D87B68BF
:101CBC0001E07B6804337B61BB69FF2B02D87B6A34
:101CCC009B0002E07B6A083B9B003B617B691A68C6
:101CDC000F213B6901FA03F3DB431A40396A3B6974
:101CEC0001FA03F31A437B691A603B685B6803F0E3
:101CFC008053002B00F09080564B9B69554A43F063
:101D0C0001039361534B9B6903F00103BB60BB68F8
:101D1C00514A7B6A9B08023352F82330FB607B6A82
:101D2C0003F003039B000F2202FA03F3DB43FA6870
:101D3C001340FB607B68494A93420DD07B68484A4C
:101D4C00934207D07B68474A934201D1022304E0B7
:101D5C00032302E0012300E000237A6A02F003026D
:101D6C0092009340FA681343FB603B497B6A9B08E3
:101D7C000233FA6841F823203B685B6803F4801354
:101D8C00002B06D0384B9A683749BB6913438B60DC
:101D9C0006E0354B9A68BB69DB43334913408B60D3
:101DAC003B685B6803F40013002B06D02E4BDA68FB
:101DBC002D49BB691343CB6006E02B4BDA68BB693A
:101DCC00DB4329491340CB603B685B6803F4003369
:101DDC00002B06D0244B5A682349BB6913434B6034
:101DEC0006E0214B5A68BB69DB431F4913404B602B
:101DFC003B685B6803F48033002B06D01A4B1A68DF
:101E0C001949BB6913430B6006E0174B1A68BB6991
:101E1C00DB43154913400B607B6A01337B623B68E3
:101E2C001A687B6A22FA03F3002B7FF4AFAE00BF73
:101E3C0000BF2C37BD4680BC704700BF000032107D
:101E4C0000003110000022100000211000001210C0
:101E5C000000111000100240000001400008014079
:101E6C00000C0140001001400004014080B485B01A
:101E7C0000AF78600B467B807B689A687B88134048
:101E8C00002B02D00123FB7301E00023FB73FB7BCF
:101E9C0018461437BD4680BC704780B483B000AF81
:101EAC0078600B467B8013467B707B78002B03D0CD
:101EBC007A887B681A6103E07B881A047B681A6154
:101ECC0000BF0C37BD4680BC704780B485B000AFF6
:101EDC0078600B467B807B68DB68FB607A88FB68EC
:101EEC0013401A04FB68D9437B880B401A437B6868
:101EFC001A6100BF1437BD4680BC704780B586B0F0
:101F0C0000AF78607B68002B01D101236CE27B6809
:101F1C001B6803F00103002B00F08780924B5B6879
:101F2C0003F00C03042B0CD08F4B5B6803F00C03F9
:101F3C00082B12D18C4B5B6803F48033B3F5803FD4
:101F4C000BD1894B1B6803F40033002B6CD07B68DE
:101F5C005B68002B68D1012346E27B685B68B3F5B4
:101F6C00803F06D1804B1B687F4A43F4803313605B
:101F7C002EE07B685B68002B0CD17B4B1B687A4A8C
:101F8C0023F480331360784B1B68774A23F4802347
:101F9C0013601DE07B685B68B3F5A02F0CD1724B0E
:101FAC001B68714A43F4802313606F4B1B686E4AA5
:101FBC0043F4803313600BE06B4B1B686A4A23F4C9
:101FCC0080331360684B1B68674A23F480231360CB
:101FDC007B685B68002B13D0FFF7B6FC386108E018
:101FEC00FFF7B2FC02463B69D31A642B01D90323D9
:101FFC00FAE15D4B1B6803F40033002BF0D014E0C6
:10200C00FFF7A2FC386108E0FFF79EFC02463B6933
:10201C00D31A642B01D90323E6E1534B1B6803F459
:10202C000033002BF0D100E000BF7B681B6803F08D
:10203C000203002B63D04C4B5B6803F00C03002BAA
:10204C000BD0494B5B6803F00C03082B1CD1464B9F
:10205C005B6803F48033002B16D1434B1B6803F0F1
:10206C000203002B05D07B681B69012B01D00123D7
:10207C00BAE13D4B1B6823F0F8027B685B69DB001F
:10208C00394913430B603AE07B681B69002B20D065
:10209C00364B01221A60FFF757FC386108E0FFF756
:1020AC0053FC02463B69D31A022B01D903239BE153
:1020BC002D4B1B6803F00203002BF0D02A4B1B683E
:1020CC0023F0F8027B685B69DB00274913430B6044
:1020DC0015E0264B00221A60FFF736FC386108E049
:1020EC00FFF732FC02463B69D31A022B01D90323BA
:1020FC007AE11D4B1B6803F00203002BF0D17B68C7
:10210C001B6803F00803002B3AD07B689B69002BFB
:10211C0019D0174B01221A60FFF716FC386108E042
:10212C00FFF712FC02463B69D31A022B01D9032399
:10213C005AE10D4B5B6A03F00203002BF0D0012037
:10214C0000F09AFA1CE00A4B00221A60FFF7FCFB25
:10215C0038610FE0FFF7F8FB02463B69D31A022BFC
:10216C0008D9032340E100BF0010024000004242A6
:10217C00800442429E4B5B6A03F00203002BE9D1C0
:10218C007B681B6803F00403002B00F0A68000237F
:10219C00FB75974BDB6903F08053002B0DD1944BEF
:1021AC00DB69934A43F08053D361914BDB6903F0B5
:1021BC008053BB60BB680123FB758E4B1B6803F41B
:1021CC008073002B18D18B4B1B688A4A43F48073A5
:1021DC001360FFF7B9FB386108E0FFF7B5FB024667
:1021EC003B69D31A642B01D90323FDE0814B1B6897
:1021FC0003F48073002BF0D07B68DB68012B06D1D5
:10220C007B4B1B6A7A4A43F0010313622DE07B6817
:10221C00DB68002B0CD1764B1B6A754A23F001034B
:10222C001362734B1B6A724A23F0040313621CE0A3
:10223C007B68DB68052B0CD16D4B1B6A6C4A43F039
:10224C00040313626A4B1B6A694A43F0010313626D
:10225C000BE0674B1B6A664A23F001031362644B65
:10226C001B6A634A23F0040313627B68DB68002B50
:10227C0015D0FFF769FB38610AE0FFF765FB0246F2
:10228C003B69D31A41F28832934201D90323ABE064
:10229C00574B1B6A03F00203002BEED014E0FFF740
:1022AC0053FB38610AE0FFF74FFB02463B69D31A38
:1022BC0041F28832934201D9032395E04C4B1B6ABF
:1022CC0003F00203002BEED1FB7D012B05D1484B13
:1022DC00DB69474A23F08053D3617B68DB69002BB1
:1022EC0000F08180424B5B6803F00C03082B61D03B
:1022FC007B68DB69022B46D13F4B00221A60FFF74B
:10230C0023FB386108E0FFF71FFB02463B69D31A39
:10231C00022B01D9032367E0354B1B6803F00073D4
:10232C00002BF0D17B681B6AB3F5803F08D1304B92
:10233C005B6823F400327B689B682D4913434B6028
:10234C002B4B5B6823F474127B68196A7B685B6A9D
:10235C000B43274913434B60274B01221A60FFF7AD
:10236C00F3FA386108E0FFF7EFFA02463B69D31A3B
:10237C00022B01D9032337E01D4B1B6803F00073BC
:10238C00002BF0D02FE01C4B00221A60FFF7DCFA78
:10239C00386108E0FFF7D8FA02463B69D31A022BE2
:1023AC0001D9032320E0124B1B6803F00073002BB0
:1023BC00F0D118E07B68DB69012B01D1012313E01C
:1023CC000B4B5B68FB60FB6803F480327B681B6A19
:1023DC009A4206D1FB6803F470127B685B6A9A42DE
:1023EC0001D0012300E0002318461837BD4680BDFC
:1023FC0000100240007000406000424280B584B082
:10240C0000AF786039607B68002B01D10123D0E0EC
:10241C006A4B1B6803F007033A689A4210D9674B62
:10242C001B6823F0070265493B6813430B60634B41
:10243C001B6803F007033A689A4201D00123B8E005
:10244C007B681B6803F00203002B20D07B681B68A1
:10245C0003F00403002B05D0594B5B68584A43F436
:10246C00E06353607B681B6803F00803002B05D006
:10247C00534B5B68524A43F460535360504B5B6858
:10248C0023F0F0027B689B684D4913434B607B68DB
:10249C001B6803F00103002B40D07B685B68012BA9
:1024AC0007D1474B1B6803F40033002B15D10123D4
:1024BC007FE07B685B68022B07D1414B1B6803F004
:1024CC000073002B09D1012373E03D4B1B6803F013
:1024DC000203002B01D101236BE0394B5B6823F025
:1024EC0003027B685B68364913434B60FFF72CFA99
:1024FC00F8600AE0FFF728FA0246FB68D31A41F2AB
:10250C008832934201D9032353E02D4B5B6803F0CF
:10251C000C027B685B689B009A42EBD1274B1B68D3
:10252C0003F007033A689A4210D2244B1B6823F03D
:10253C00070222493B6813430B60204B1B6803F0D6
:10254C0007033A689A4201D0012332E07B681B688A
:10255C0003F00403002B08D0194B5B6823F4E062F2
:10256C007B68DB68164913434B607B681B6803F080
:10257C000803002B09D0124B5B6823F460527B6874
:10258C001B69DB000E4913434B6000F021F8024637
:10259C000B4B5B681B0903F00F030A49CB5C22FA57
:1025AC0003F3094A1360094B1B681846FFF78AF9B5
:1025BC00002318461037BD4680BD00BF00200240E6
:1025CC0000100240E82E000880000020840000204B
:1025DC0080B487B000AF0023FB600023BB600023F6
:1025EC007B6100237B6000233B611E4B5B68FB60BF
:1025FC00FB6803F00C03042B02D0082B03D027E05C
:10260C00194B3B6127E0FB689B0C03F00F03174A47
:10261C00D35C7B60FB6803F48033002B10D0114B30
:10262C005B685B0C03F00103114AD35CBB607B68F5
:10263C000D4A02FB03F2BB68B2FBF3F37B6104E0CF
:10264C007B680C4A02FB03F37B617B693B6102E014
:10265C00054B3B6100BF3B6918461C37BD4680BC2F
:10266C00704700BF0010024000127A00F82E0008DC
:10267C00082F000800093D0080B485B000AF7860D9
:10268C000A4B1B680A4AA2FB03235B0A7A6802FB0B
:10269C0003F3FB6000BFFB685A1EFA60002BF9D1F4
:1026AC0000BF00BF1437BD4680BC704780000020BF
:1026BC00D34D621080B582B000AF78607B68002B80
:1026CC0001D1012341E07B6893F83D30DBB2002B54
:1026DC0006D17B68002283F83C207868FEF778FFEF
:1026EC007B68022283F83D207B681A687B68043380
:1026FC001946104600F056FA7B68012283F84620F2
:10270C007B68012283F83E207B68012283F83F20FE
:10271C007B68012283F840207B68012283F84120EA
:10272C007B68012283F842207B68012283F84320D6
:10273C007B68012283F844207B68012283F84520C2
:10274C007B68012283F83D20002318460837BD46DC
:10275C0080BD000080B485B000AF78607B6893F8D2
:10276C003D30DBB2012B01D0012335E07B68022226
:10277C0083F83D207B681B68DA687B681B6842F035
:10278C000102DA607B681B68164A934209D07B68A9
:10279C001B68B3F1804F04D07B681B68124A9342CC
:1027AC0011D17B681B689B6803F00703FB60FB6817
:1027BC00062B10D07B681B681A687B681B6842F07C
:1027CC0001021A6007E07B681B681A687B681B684B
:1027DC0042F001021A60002318461437BD4680BC33
:1027EC00704700BF002C01400004004080B584B04D
:1027FC0000AF78607B681B68DB68FB607B681B68DC
:10280C001B69BB60BB6803F00203002B20D0FB6884
:10281C0003F00203002B1BD07B681B686FF00202D5
:10282C001A617B6801221A777B681B689B6903F02D
:10283C000303002B03D0786800F098F905E0786862
:10284C0000F08BF9786800F09AF97B6800221A770F
:10285C00BB6803F00403002B20D0FB6803F00403D7
:10286C00002B1BD07B681B686FF004021A617B681D
:10287C0002221A777B681B689B6903F44073002B58
:10288C0003D0786800F072F905E0786800F065F91B
:10289C00786800F074F97B6800221A77BB6803F043
:1028AC000803002B20D0FB6803F00803002B1BD07F
:1028BC007B681B686FF008021A617B6804221A7728
:1028CC007B681B68DB6903F00303002B03D078687B
:1028DC0000F04CF905E0786800F03FF9786800F0FA
:1028EC004EF97B6800221A77BB6803F01003002BAB
:1028FC0020D0FB6803F01003002B1BD07B681B68F7
:10290C006FF010021A617B6808221A777B681B68CB
:10291C00DB6903F44073002B03D0786800F026F9D0
:10292C0005E0786800F019F9786800F028F97B6800
:10293C0000221A77BB6803F00103002B0CD0FB6854
:10294C0003F00103002B07D07B681B686FF00102BA
:10295C001A617868FEF79CFDBB6803F08003002BBE
:10296C000CD0FB6803F08003002B07D07B681B683E
:10297C006FF080021A61786800F06FFABB6803F0A0
:10298C004003002B0CD0FB6803F04003002B07D056
:10299C007B681B686FF040021A61786800F0F8F8E9
:1029AC00BB6803F02003002B0CD0FB6803F0200362
:1029BC00002B07D07B681B686FF020021A617868C7
:1029CC0000F042FA00BF1037BD4680BD80B584B020
:1029DC0000AF786039600023FB737B6893F83C3060
:1029EC00012B01D10223B4E07B68012283F83C2047
:1029FC007B68022283F83D207B681B689B68BB6068
:102A0C00BB6823F07703BB60BB6823F47F43BB60D8
:102A1C007B681B68BA689A603B681B68B3F5005FFB
:102A2C003ED0B3F5005F00F28780B3F5805F00F015
:102A3C008680B3F5805F7FD8702B1AD0702B7BD833
:102A4C00602B50D0602B77D8502B3CD0502B73D8A8
:102A5C00402B58D0402B6FD8302B64D0302B6BD8F8
:102A6C00202B60D0202B67D8002B5CD0102B5AD099
:102A7C0062E07B6818683B6899683B685A683B68F9
:102A8C00DB6800F06AF97B681B689B68BB60BB68FD
:102A9C0043F07703BB607B681B68BA689A604FE0B1
:102AAC007B6818683B6899683B685A683B68DB68C8
:102ABC0000F053F97B681B689A687B681B6842F4CA
:102ACC0080429A603CE07B6818683B6859683B68B8
:102ADC00DB681A4600F0CAF87B681B685021184660
:102AEC0000F021F92CE07B6818683B6859683B685A
:102AFC00DB681A4600F0E8F87B681B686021184612
:102B0C0000F011F91CE07B6818683B6859683B6859
:102B1C00DB681A4600F0AAF87B681B68402118464F
:102B2C0000F001F90CE07B681A683B681B681946D9
:102B3C00104600F0F8F803E00123FB7300E000BF3F
:102B4C007B68012283F83D207B68002283F83C20BF
:102B5C00FB7B18461037BD4680BD80B483B000AFF8
:102B6C00786000BF0C37BD4680BC704780B483B022
:102B7C0000AF786000BF0C37BD4680BC704780B496
:102B8C0083B000AF786000BF0C37BD4680BC704787
:102B9C0080B483B000AF786000BF0C37BD4680BCFA
:102BAC007047000080B485B000AF786039607B68F6
:102BBC001B68FB607B682B4A934207D07B68B3F1A0
:102BCC00804F03D07B68284A934208D1FB6823F0DE
:102BDC007003FB603B685B68FA681343FB607B68BF
:102BEC00204A934207D07B68B3F1804F03D07B68B7
:102BFC001D4A934208D1FB6823F44073FB603B6889
:102C0C00DB68FA681343FB60FB6823F080023B68C7
:102C1C005B691343FB607B68FA681A603B689A68CF
:102C2C007B68DA623B681A687B689A627B680D4A3B
:102C3C00934203D13B681A697B681A637B68012253
:102C4C005A617B681B6903F00103002B05D07B687C
:102C5C001B6923F001027B681A6100BF1437BD4663
:102C6C0080BC7047002C01400004004080B487B049
:102C7C0000AFF860B9607A60FB681B6A7B61FB6827
:102C8C001B6A23F00102FB681A62FB689B693B61BB
:102C9C003B6923F0F0033B617B681B013A691343EA
:102CAC003B617B6923F00A037B617A69BB68134340
:102CBC007B61FB683A699A61FB687A691A6200BFAA
:102CCC001C37BD4680BC704780B487B000AFF8603D
:102CDC00B9607A60FB681B6A7B61FB681B6A23F036
:102CEC001002FB681A62FB689B693B613B6923F429
:102CFC0070433B617B681B033A6913433B617B69FF
:102D0C0023F0A0037B61BB681B017A6913437B61D1
:102D1C00FB683A699A61FB687A691A6200BF1C37D2
:102D2C00BD4680BC704780B485B000AF7860396018
:102D3C007B689B68FB60FB6823F07003FB603A6860
:102D4C00FB68134343F00703FB607B68FA689A60E7
:102D5C0000BF1437BD4680BC704780B487B000AF4D
:102D6C00F860B9607A603B60FB689B687B617B694B
:102D7C0023F47F437B613B681A027B681A43BB6870
:102D8C0013437A6913437B61FB687A699A6000BFCD
:102D9C001C37BD4680BC704780B485B000AF7860EE
:102DAC0039607B6893F83C30012B01D1022341E060
:102DBC007B68012283F83C207B68022283F83D204B
:102DCC007B681B685B68FB607B681B689B68BB60EF
:102DDC00FB6823F07003FB603B681B68FA681343C5
:102DEC00FB607B681B68FA685A607B681B68144A36
:102DFC00934209D07B681B68B3F1804F04D07B6889
:102E0C001B68104A93420CD1BB6823F08003BB6053
:102E1C003B685B68BA681343BB607B681B68BA6825
:102E2C009A607B68012283F83D207B68002283F83E
:102E3C003C20002318461437BD4680BC704700BFA9
:102E4C00002C01400004004080B483B000AF7860D7
:102E5C0000BF0C37BD4680BC704780B483B000AF58
:102E6C00786000BF0C37BD4680BC704770B500263B
:102E7C000C4D0D4C641BA410A64209D100F022F895
:102E8C0000260A4D0A4C641BA410A64205D170BD45
:102E9C0055F8043B98470136EEE755F8043B984744
:102EAC000136F2E70C2F00080C2F00080C2F00083D
:102EBC00102F000803460244934200D1704703F8D8
:102ECC00011BF9E7F8B500BFF8BC08BC9E4670477B
:0C2EDC00F8B500BFF8BC08BC9E4670476B
:102EE80000000000000000000102030406070809B2
:102EF80002030405060708090A0B0C0D0E0F101033
:042F080001020000C2
:042F0C003101000887
:042F10000D010008A7
:102F1400C8000000C8000000C8000000C80000008D
:102F24000100000001000000010000000100000099
:102F34000100000001000000010000000100000089
:102F44000100000001000000010000000100000079
:102F54000100000001000000010000000100000069
:102F64000008014000080140000801400008014039
:102F7400400080000001004001000000010000004A
:102F84000100000088130000D0070000B80B000007
:0C2F940000127A00100000000100000094
:04000005080018597E
:00000001FF
